:100000008031022883312D2B8431812C84318A2C3C
:100010008431932C84319C2C8431A52C8431AE2CDA
:100020008431B72C8431C02C8431C92C8431D22C3A
:100646007830210099040800640080010131890B8B
:10065600282B0034EE01EF01A03084000030850025
:100666002B3083312723833120008531812D2000D3
:100676008C0122008C0123008C01203021008C008B
:1006860020008D0122008D01D03021008D00230035
:100696000D16080021009D14502B9D18532B542B2A
:1006A600502B552B1B08F200F3011C08F400F50132
:1006B6007408F500F40172087407F0007308753DBC
:1006C600F100652B0800F001F10100307102C8301D
:1006D60003197002031C702B712B732B812B812B3A
:1006E6000130F0070030F13D00307102C8300319C7
:1006F6007002031C7F2B802B732B812B080000308C
:10070600FB000030FA000030F9000030F8008B2BB7
:10071600701C8E2B8F2B982B7408F8077508F93DE3
:100726007608FA3D7708FB3D982B0130F435F50D38
:10073600F60DF70D890B992B0130F336F20CF10CFF
:10074600F00C890BA02B7308720471047004031D4E
:10075600AD2BAE2B8B2BAF2B7B08F3007A08F20068
:100766007908F1007808F000B82B0800200023086B
:100776002204210420040319C12BC22B022CA90137
:100786000314A90DD22B0130A035A10DA20DA30D86
:10079600890BC72B0130A8002808A907D22BA31F55
:1007A600D52BD62BC62BD82BD82B23082702031DD7
:1007B600E62B22082602031DE62B21082502031D2F
:1007C600E62B20082402031CE92BEA2BF32B200836
:1007D600A4022108A53B2208A63B2308A73BF32B2E
:1007E6000130A336A20CA10CA00C890BF42B01300E
:1007F600A902031DFF2B002CD82B022C022C270844
:10080600A3002608A2002508A1002408A0000B2C9E
:1008160008000030FC000030FB000030FA00003019
:10082600F900730872047104700403191B2C1C2C44
:10083600642CFD010314FD0D2C2C0130F035F10D57
:10084600F20DF30D890B212C0130F8007808FD0715
:100856002C2CF31F2F2C302C202C322C322C013038
:10086600F935FA0DFB0DFC0D890B332C7308770255
:10087600031D472C72087602031D472C710875026A
:10088600031D472C70087402031C4A2C4B2C552C54
:100896007008F4027108F53B7208F63B7308F73BE3
:1008A6007914552C0130F336F20CF10CF00C890B4F
:1008B600562C0130FD02031D612C622C322C642C57
:1008C600642C7C08F3007B08F2007A08F1007908B2
:1008D600F0006D2C0800F0000A307002031C742C26
:1008E600752CDC2CE62CE62CDC2C22008D108D11D0
:1008F6000C138D120C120D110D10E62C22008D1406
:100906008D150C178D160C160D150D10E62C2200E4
:100916008D108D150C178D120C120D110D10E62C65
:1009260022008D148D150C138D160C160D110D1439
:10093600E62C22008D148D150C178D160C120D1138
:100946000D14E62C22008D108D150C178D120C122D
:100956000D150D14E62C22008D148D110C178D1615
:100966000C120D150D14E62C22008D148D110C178A
:100976008D160C160D150D14E62C22008D148D15F2
:100986000C178D120C120D110D10E62C22008D1471
:100996008D150C178D160C160D150D14E62C220050
:1009A6008D148D150C178D160C120D150D14E62CC5
:1009B600E62C700884000A3004020318782C803173
:1009C6000435043E820008002000A4007C30A80004
:1009D600E030A700C030A6000030A50021001D10A1
:1009E60022001708FC3902389700971721001E11BC
:1009F600FC309E051E088F3950389E009E177C30AD
:100A06009D041D142000A901AA0100302A021430F9
:100A160003192902031C102D112D132D202D202D15
:100A26000130A9070030AA3D00302A02143003190C
:100A36002902031C1F2D202D132D21009D14232D6B
:100A46009D18262D272D232D282D1B082000A000BC
:100A5600A10121001C082000A200A3012208A30076
:100A6600A20120082207A9002108233DAA0029087F
:100A7600F0002A08F100F201F3012808F700270820
:100A8600F6002608F5002508F40084310C2484318C
:100A960073082000A8007208A7007108A600700855
:100AA600A5002408860087012508C03F2608C13F07
:100AB6002708C23F2808C33F21001D088339203874
:100AC6009D002000A901AA0100302A021430031952
:100AD6002902031C6F2D702D722D802D802D013063
:100AE600A9070030AA3D00302A0214300319290252
:100AF600031C7E2D7F2D722D802D0800A0308600D0
:100B06000030870043308400003085002B30FF0022
:100B160016001A00FF0B8B2D2000BC01B501B60193
:100B2600B701BD01BE0183312323853183313A23C9
:100B360085316A308431E72485312000BD01BE014C
:100B460000303E02C83003193D02031CAB2DAC2D0C
:100B5600AE2DBC2DBC2D0130BD070030BE3D003092
:100B66003E02C83003193D02031CBA2DBB2DAE2D23
:100B7600BC2D83314D23853171082000E901E90739
:100B86007008E801E8072530433E86008701403FAC
:100B9600AF00413FB0000430AF35B00D890BCF2D0B
:100BA6002F08B1003008B200B301B4013408C70001
:100BB6003308C6003208C5003108C400BD01BE01B5
:100BC60000303E02103003193D02031CEB2DEC2DC4
:100BD600EE2D072E072E3D080907053E433E8600EB
:100BE60087016808C03F6908C13F0130BD07003072
:100BF600BE3D00303E02103003193D02031C042E98
:100C0600052EEE2D072E072E2000BC08031D0C2EE8
:100C16000D2EBD2E0130BD020030BE3BFF303E061C
:100C2600031D172EFF303D06031D1A2E1B2EBD2E4B
:100C36000530BD000030BE006A308431E7248531BE
:100C4600200043080907053E433E86008701403FD2
:100C5600AF00413FB0002F08B1003008B200B30129
:100C6600B4013108C4023208C53B3308C63B340818
:100C7600C73B83314D238531200043080907053ED4
:100C8600433E860087017008C03F7108C13F430894
:100C96000907053E433E86008701403FAF00413FBE
:100CA600B0002F08C4073008C53D0030C63DC73D1B
:100CB6004408AF004508B0004608B1004708B20036
:100CC6000430B236B10CB00CAF0C890B642E300870
:100CD600E901E9072F08E801E8070130AF002F080E
:100CE600C3070F30AF002F08C305C308031D7C2EB2
:100CF6007D2E812EBC010314BC0D812E6808F000E8
:100D06006908F100F201F3012730433E86008701AE
:100D1600403FF400413FF500423FF600433FF700F5
:100D260083318223853173082000BB007208BA0024
:100D36007108B9007008B8000030F3000030F20006
:100D46000330F100FF30F0003B08F7003A08F600E8
:100D56003908F5003808F40084310C24853173080D
:100D66002000BB007208BA007108B9007008B8000C
:100D7600BD2EBD2E3809AF003909B0003A09B100C1
:100D86003B09B200AF0A0319B00A0319B10A0319E5
:100D9600B20AFC302F07BF005A30303DC0001C306D
:100DA600313DC1000030323DC2000030F30000305A
:100DB600F2000430F1008F30F0004208F7004108DD
:100DC600F6004008F5003F08F40084310C24853114
:100DD60073082000C2007208C1007108C0007008C4
:100DE600BF004208F3004108F2004008F1003F0846
:100DF600F0000030F7000030F6000030F500093052
:100E0600F400833182238531403070072000BF0013
:100E16000630713DC0000030723DC1000030733DA8
:100E2600C2000030A3000030A2000030A10005304F
:100E3600A0004208A7004108A6004008A5003F08F8
:100E4600A4008331B9238531003020002302031D1D
:100E5600362F00302202031D362F00302102031DDB
:100E6600362F03302002031C392F3A2F432F02302E
:100E7600BF070030C03D0030C13D0030C23D432FAA
:100E86000030F3000030F2000030F1000530F000D1
:100E96004208F7004108F6004008F5003F08F40054
:100EA60084310C24853173082000C2007208C10009
:100EB6007108C0007008BF000030A3000030A20017
:100EC6000030A1000A30A0000030F3000030F2002C
:100ED6000030F1006430F0004208F7004108F600E7
:100EE6004008F5003F08F40084310C24853173086E
:100EF6002000A7007208A6007108A5007008A400CB
:100F06008331B923853120002008AF002F08B500B2
:100F16000030A3000030A2000030A1000A30A0007B
:100F26000030F3000030F2000030F1000A30F0002B
:100F36004208F7004108F6004008F5003F08F400B3
:100F460084310C24853173082000A7007208A6009E
:100F56007108A5007008A4008331B92385312000EB
:100F66002008AF002F08B6000030F3000030F20072
:100F76000330F100E830F0004208F7004108F600BF
:100F86004008F5003F08F40084310C2485317008D0
:100F96002000AF002F08B7003C08031DD32F072EF3
:100FA600350884316E24853122008C1420003708E0
:100FB600031DDE2FE22F22000C158C15E22F833144
:100FC6006623853122008C100C118C112000360806
:100FD60084316E24853122008C1783316623853156
:100FE60022008C1383316623853183316623853154
:0A0FF600072E072E072E8031022877
:020000040001F9
:08000000FF3FFF3FFF3FFF3F00
:04000E00A4FFFFDF6D
:00000001FF
